:100000000C947A000C94B2010C94DD010C9408025B
:100010000C9433020C945E020C9489020C94B4028A
:100020000C94DF020C949B000C949B000C949B009E
:100030000C949B000C949B000C949B000C949B00D4
:100040000C949B000C949B000C949B000C949B00C4
:100050000C949B000C949B000C949B000C949B00B4
:100060000C949B000C949B000C949B000C949B00A4
:100070000C949B000C94F6000C949B000C949B0039
:100080000C949B000C949B000C949B000C949B0084
:100090000C949B000C949B000C949B000C949B0074
:1000A0000C949B000C949B000C949B000C949B0064
:1000B0000C949B000C949B000C949B000C94BE072A
:1000C0000C949B000C949B000C949B000C949B0044
:1000D0000C949B000C949B000C949B000C949B0034
:1000E0000C949B000C949D000C949E000C949F001B
:1000F0000C94260111241FBECFEFD1E2DEBFCDBF8D
:1001000000E00CBF12E0A0E0B2E0E6E4F7E100E0BE
:100110000BBF02C007900D92A631B107D9F722E0BC
:10012000A6E1B2E001C01D92AC33B207E1F70E9434
:10013000A0000C94A10B0C940A030895089508954F
:100140000E9463080E94BB0060E087E00E942701D4
:100150006DE970E080E090E00E94A7016EE970E038
:1001600081E090E00E94A7016FE970E082E090E0FA
:100170000E94A701FFCFF894EAE7F0E08081886849
:100180008083ABE7B0E08C91877F8C93ACE7B0E0E5
:100190008C9181668C938C91817E8C9378948081F4
:1001A00080648083089510922E0210922D02EAE757
:1001B000F0E080818064808380912D028130E1F7BE
:1001C00080912F02089581E080932E0210922D02DB
:1001D000EAE7F0E080818064808380912D028130A5
:1001E000E1F780911B0290911C0208951F920F92DB
:1001F0000FB60F9211242F933F938F939F9380916B
:100200002E02811105C08091790080932F0212C0C7
:1002100080917800209179008295869586958370EB
:1002200090E034E0239F800D911D112490931C02D7
:1002300080931B0281E080932D029F918F913F91CB
:100240002F910F900FBE0F901F9018950895FF9259
:100250000F931F93CF93DF93EDE1F2E04DE252E075
:1002600026E231E021933193E417F507D9F7F894AA
:100270008DBB1092690041E050E020E030E0E9E6FB
:10028000F0E001E010E0A62F062E000CBB0B708101
:10029000C801042E02C0880F991F0A94E2F7872B29
:1002A00080837081CD01022E02C0959587950A94B6
:1002B000E2F781709927E901CC0FDD1F02C0880F9A
:1002C000991FCA95E2F7872B80832F5F3F4F4E5FC0
:1002D0005F4F24303105D9F662956F7010926A0035
:1002E00041E050E020E030E0EAE6F0E0A1E0B0E0FC
:1002F000062E000C770BC081CD01042E02C0880FA2
:10030000991F0A94E2F78C2B8083C081CB01022EC7
:1003100002C0959587950A94E2F781709927890123
:10032000000F111F02C0880F991F0A95E2F78C2B4E
:1003300080832F5F3F4F4E5F5F4F24303105D9F6EA
:100340007894DF91CF911F910F91FF90089588309D
:10035000910538F4880F991FFC01E35EFD4F71830E
:10036000608308951F920F920FB60F9211240BB65F
:100370000F922F933F934F935F936F937F938F933E
:100380009F93AF93BF93EF93FF93E0911D02F09182
:100390001E021995FF91EF91BF91AF919F918F919F
:1003A0007F916F915F914F913F912F910F900BBE75
:1003B0000F900FBE0F901F9018951F920F920FB6BF
:1003C0000F9211240BB60F922F933F934F935F938D
:1003D0006F937F938F939F93AF93BF93EF93FF930D
:1003E000E0911F02F09120021995FF91EF91BF91CA
:1003F000AF919F918F917F916F915F914F913F91BD
:100400002F910F900BBE0F900FBE0F901F9018955D
:100410001F920F920FB60F9211240BB60F922F93CB
:100420003F934F935F936F937F938F939F93AF937C
:10043000BF93EF93FF93E0912102F091220219956F
:10044000FF91EF91BF91AF919F918F917F916F91AC
:100450005F914F913F912F910F900BBE0F900FBE68
:100460000F901F9018951F920F920FB60F921124A4
:100470000BB60F922F933F934F935F936F937F939E
:100480008F939F93AF93BF93EF93FF93E0912302DA
:10049000F09124021995FF91EF91BF91AF919F9137
:1004A0008F917F916F915F914F913F912F910F901D
:1004B0000BBE0F900FBE0F901F9018951F920F92BA
:1004C0000FB60F9211240BB60F922F933F934F93B9
:1004D0005F936F937F938F939F93AF93BF93EF93AC
:1004E000FF93E0912502F09126021995FF91EF917B
:1004F000BF91AF919F918F917F916F915F914F913C
:100500003F912F910F900BBE0F900FBE0F901F9039
:1005100018951F920F920FB60F9211240BB60F92DF
:100520002F933F934F935F936F937F938F939F93FB
:10053000AF93BF93EF93FF93E0912702F0912802CE
:100540001995FF91EF91BF91AF919F918F917F91FD
:100550006F915F914F913F912F910F900BBE0F9034
:100560000FBE0F901F9018951F920F920FB60F920B
:1005700011240BB60F922F933F934F935F936F937A
:100580007F938F939F93AF93BF93EF93FF93E091EC
:100590002902F0912A021995FF91EF91BF91AF9135
:1005A0009F918F917F916F915F914F913F912F918B
:1005B0000F900BBE0F900FBE0F901F9018951F92BB
:1005C0000F920FB60F9211240BB60F922F933F93F9
:1005D0004F935F936F937F938F939F93AF93BF934B
:1005E000EF93FF93E0912B02F0912C021995FF916C
:1005F000EF91BF91AF919F918F917F916F915F919B
:100600004F913F912F910F900BBE0F900FBE0F9007
:100610001F9018951F920F920FB60F9211240F90F2
:100620000FBE0F901F90189587B1807F87B9459AAC
:10063000469882E08A95F1F700C0479A92E09A9531
:10064000F1F700C086B18295807F92E09A95F1F72C
:1006500000C0479895E09A95F1F70000479A92E01C
:100660009A95F1F700C096B192E09A95F1F700C023
:10067000479895E09A95F1F700008823F4F24598A1
:1006800087B18F6087B90895282F22952F708F70BA
:10069000611102C0469801C0469A92E09A95F1F71E
:1006A00000C0479A98B1907F922B98B995E09A959F
:1006B000F1F70000479895E09A95F1F70000479A06
:1006C00098B1907F892B88B985E08A95F1F7000071
:1006D000479895E09A95F1F700000E941403089559
:1006E000CF93C82F2FEF86E791E0215080409040B4
:1006F000E1F700C0000087B18F6087B93F9A3E9A4A
:100700003D9A88B1807F88B947984598469800C03F
:1007100000C00000479A419A25E02A95F1F70000B1
:10072000479885E08A95F1F700000E94140360E085
:100730008C2F8C600E94440360E088E20E94440396
:10074000CF91089583E00E9470030895CF93DF93C3
:10075000EC018881882339F0219661E00E944403EE
:1007600089918111FACFDF91CF9108954F925F92D5
:100770006F927F929F92AF92BF92CF92DF92EF9251
:10078000FF920F931F93CF93DF936B017C018A013C
:1007900099235CF4F094E094D094C094C11CD11CD3
:1007A000E11CF11C9924939401C0912C0F3F8FEF11
:1007B000180701F5C114D104E104F104C9F0A7013F
:1007C000960100E010E00F2EFAE04F2E512C612C24
:1007D000712CF02D0F5F1F4FCA01B901A3019201C7
:1007E0000E94D208211531054105510599F702C033
:1007F00000E010E0C8010E94800A5C01C114D1042D
:10080000E104F104D1F0EC01C00FD11F0F2EFAE08A
:100810004F2E512C612C712CF02DC701B601A30174
:1008200092010E94D2086A93C22ED32EE42EF52E96
:10083000C114D104E104F10481F7992021F061E0B1
:100840008DE20E9444030115110559F0E5010A0DDE
:100850001B1D899161E0805D0E9444030C171D07F8
:10086000C1F7C5010E94180BDF91CF911F910F9125
:10087000FF90EF90DF90CF90BF90AF909F907F90D0
:100880006F905F904F9008950E948C09072E000C86
:10089000880B990B4FEF5FEF0E94B60384E192E063
:1008A0000E94A6030895883230F46111806460E0EC
:1008B00080680E944403089586E090E00E94800AC8
:1008C000FC01118210821382128215821482089513
:1008D0001F93CF93DF93EC01162F85E090E00E94E9
:1008E000800AFC01108312821182148213828C818F
:1008F0009D81892B19F4FB83EA830AC0A881B98101
:100900001496FC93EE931397888199819283818347
:10091000F983E8838C819D8101969D838C83DF918F
:10092000CF911F9108951F93CF93DF93FC01A08176
:10093000B1811097C9F01C9111968D919C911297DD
:100940009183808382819381A817B90711F4138260
:100950001282EF01CD010E94180B8C819D810197BD
:100960009D838C83812F01C080E0DF91CF911F9107
:100970000895DC01ED91FC91309711F0808108958C
:1009800080E008951F93CF93DF93FC01A281B38190
:100990001097C9F01C9113968D919C911497938395
:1009A000828380819181A817B90711F41182108286
:1009B000EF01CD010E94180B8C819D8101979D83D1
:1009C0008C83812F01C080E0DF91CF911F9108952A
:1009D000CF93DF93EC018C819D811816190644F4A6
:1009E000CE010E9493048C819D8118161906C4F3D0
:1009F000DF91CF910895FC0184819581089568303D
:100A000058F421E030E002C0220F331F6A95E2F76C
:100A1000FC013081232B20830895683060F421E0AD
:100A200030E002C0220F331F6A95E2F72095FC01E7
:100A30003081232320830895683058F421E030E08A
:100A400002C0220F331F6A95E2F7FC013081232791
:100A50002083089541E050E002C0440F551F6A957D
:100A6000E2F721E030E0452B11F420E030E0082EE1
:100A7000000C990B2823392381E0232B09F480E013
:100A80000895CF92DF92EF92FF920F931F938B0105
:100A90009C0135952795179507950F2EFFEDCF2EC5
:100AA000F9E5DF2EF7E3EF2EFFE5FF2EF02DC01A5C
:100AB000D10AE20AF30A20E030E040E05FE30E945E
:100AC000130AA70196010E94130AA70196010E942A
:100AD000130A9B01AC0160E070E080EC9FE30E9490
:100AE0001F09A70196010E94130A1F910F91FF9001
:100AF000EF90DF90CF900895CF93C8B188B964E6A6
:100B000070E080E090E00E947A08C8B9CF91089523
:100B100084B5806A84BD85B5836085BD8FEF84B957
:100B200083BB089594B59C7F94BD95B5977F95BD83
:100B300094B5282F2370922B94BD95B58470880F9F
:100B4000892B85BD089584B525B5287030E035958D
:100B500027958370822B0895CF93C82F88BD0E945C
:100B6000A3058570853009F0C7BDCF910895909396
:100B70000102809300020895E1E2F1E080818A6041
:100B8000808388EE93E0909329018093280110924E
:100B9000250110922401E3E7F0E0808182608083E8
:100BA00080E992EEA0E0B0E08093300290933102B1
:100BB000A0933202B093330284E893E0A0E0B0E067
:100BC0008093340290933502A0933602B09337029B
:100BD000789408951092190210921802089581B124
:100BE0008F6081B980911A028F5F837080931A029F
:100BF000E0911A02F0E0E85FFD4F808182B98091B8
:100C0000180290911902019690931902809318028C
:100C1000809118029091190268EC70E00E949C0883
:100C20009093190280931802089581B18F6081B961
:100C300080911A028150837080931A02E0911A0207
:100C4000F0E0E85FFD4F808182B9809118029091B9
:100C5000190201979093190280931802809118024B
:100C60009091190268EC70E00E949C089093190220
:100C70008093180208952F923F924F925F926F9245
:100C80007F928F929F92AF92BF92CF92DF92EF921C
:100C9000FF920F931F93CF93DF936B017C01AB0106
:100CA000BC01FF203CF444275527BA014C195D09CB
:100CB0006E097F0981E090E09093170280931602FD
:100CC0004B3151056105710564F4DB01CA017723DD
:100CD0001CF40196A11DB11DB595A7959795879513
:100CE00002C08DE090E0FF203CF01C141D041E04A7
:100CF0001F040CF44AC083C0F094E094D094C094D4
:100D0000C11CD11CE11CF11C1C141D041E041F0479
:100D10000CF075C0412C512C3201C0E0D0E00F2EF8
:100D2000F8EE2F2EF3E03F2EF02D092E000CAA0B2B
:100D3000BB0B46015701881A990AAA0ABB0A0FEF92
:100D40001FEF0E9415066091000270910102C1011F
:100D50000E949C08072E000C880B990B0E947A08B1
:100D6000481459046A047B0424F01093170200937A
:100D7000160221962E010D2E000C660877084C14E1
:100D80005D046E047F04ECF23AC0412C512C320118
:100D9000C0E0D0E00F2EF8EE2F2EF3E03F2EF02D26
:100DA000092E000CAA0BBB0B46015701881A990AA1
:100DB000AA0ABB0A0FEF1FEF0E94EF056091000225
:100DC00070910102C1010E949C08072E000C880B43
:100DD000990B0E947A08481459046A047B0424F091
:100DE000109317020093160221962E010D2E000C6F
:100DF000660877084C145D046E047F04ECF2DF9102
:100E0000CF911F910F91FF90EF90DF90CF90BF9007
:100E1000AF909F908F907F906F905F904F903F909A
:100E20002F900895CF92DF92EF92FF920F931F932E
:100E3000CF93DF936B017C01109217021092160280
:100E4000992334F016161706180619066CF14AC0D5
:100E5000F094E094D094C094C11CD11CE11CF11C0E
:100E60001C141D041E041F04ECF5C0E0D0E008EEC5
:100E700013E00E9415066091000270910102C80102
:100E80000E949C08072E000C880B990B0E947A0880
:100E90002196CE010D2E000CAA0BBB0B8C159D05C7
:100EA000AE05BF0534F31EC0C0E0D0E008EE13E08D
:100EB0000E94EF056091000270910102C8010E943A
:100EC0009C08072E000C880B990B0E947A0821962B
:100ED000CE010D2E000CAA0BBB0B8C159D05AE058B
:100EE000BF0534F3DF91CF911F910F91FF90EF90E9
:100EF000DF90CF9008959B01AC01A8ECB0E00E9478
:100F0000F10828E631E040E050E00E94D208CA0132
:100F1000B9010E9412070895209118023091190218
:100F2000821B930B853691051CF0885C910906C0E5
:100F30008C392FEF920714F488539F4FBC01990FFF
:100F4000880B990B0E941207089520911802309186
:100F50001902821B930B853691051CF0885C910960
:100F600006C08C392FEF920714F488539F4FBC01B1
:100F7000990F880B990B0E943B0608951F920F92C0
:100F80000FB60F9211240BB60F922F933F934F93EE
:100F90005F936F937F938F939F93AF93BF93EF93E1
:100FA000FF9380911602909117028F3F2FEF9207C7
:100FB000F1F1019709F074C0809100029091010253
:100FC000863A9105ECF440913402509135026091DB
:100FD0003602709137028091300290913102A091D7
:100FE0003202B0913302840F951FA61FB71F809362
:100FF000300290933102A0933202B093330204C0C6
:101000001092170210921602609130027091310214
:10101000809132029091330228EE33E040E050E0BC
:101020000E94B008309301022093000239C08091E1
:10103000000290910102CB97ECF040913402509164
:1010400035026091360270913702809130029091A2
:101050003102A0913202B0913302841B950BA60B92
:10106000B70B8093300290933102A0933202B09379
:10107000330204C0109217021092160260913002DF
:1010800070913102809132029091330228EE33E068
:1010900040E050E00E94B00830930102209300022B
:1010A000FF91EF91BF91AF919F918F917F916F9140
:1010B0005F914F913F912F910F900BBE0F900FBEFC
:1010C0000F901F901895E1E6F0E080E8808381E0C2
:1010D000808388EE93E09093990080939800E1E9F3
:1010E000F0E08081826080830895909399008093DE
:1010F000980008950F931F93E1E9F0E020812860A4
:1011000020831092950010929400C19A00E010E0A4
:10111000980107C0C19BFECFC19A0F5F1F4F2F4F91
:101120003F4F06171707280739071CF4C19BF2CF5A
:10113000F3CF1F910F91089597FB072E16F400949B
:1011400007D077FD09D00E94FC0807FC05D03EF4CB
:10115000909581959F4F0895709561957F4F089563
:10116000A1E21A2EAA1BBB1BFD010DC0AA1FBB1FAB
:10117000EE1FFF1FA217B307E407F50720F0A21B1D
:10118000B30BE40BF50B661F771F881F991F1A948A
:1011900069F760957095809590959B01AC01BD01B4
:1011A000CF010895052E97FB1EF400940E94E908D4
:1011B00057FD07D00E94B00807FC03D04EF40C94F2
:1011C000E90850954095309521953F4F4F4F5F4F1F
:1011D000089590958095709561957F4F8F4F9F4FA3
:1011E00008950E941009A59F900DB49F900DA49F93
:1011F000800D911D11240895AA1BBB1B51E107C04E
:10120000AA1FBB1FA617B70710F0A61BB70B881F96
:10121000991F5A95A9F780959095BC01CD01089525
:10122000A29FB001B39FC001A39F700D811D112427
:10123000911DB29F700D811D1124911D089550586C
:10124000BB27AA270E9437090C94D9090E94CB0911
:1012500038F00E94D20920F039F49F3F19F426F4A7
:101260000C94C8090EF4E095E7FB0C94C209E92F31
:101270000E94EA0958F3BA176207730784079507B3
:1012800020F079F4A6F50C940C0A0EF4E0950B2EE0
:10129000BA2FA02D0B01B90190010C01CA01A001C8
:1012A0001124FF27591B99F0593F50F4503E68F123
:1012B0001A16F040A22F232F342F4427585FF3CF64
:1012C000469537952795A795F0405395C9F77EF435
:1012D0001F16BA0B620B730B840BBAF09150A1F07E
:1012E000FF0FBB1F661F771F881FC2F70EC0BA0F04
:1012F000621F731F841F48F4879577956795B7958C
:10130000F7959E3F08F0B0CF9395880F08F0992786
:10131000EE0F9795879508950E9493096894B111EF
:101320000C940D0A08950E94F20988F09F5798F0D6
:10133000B92F9927B751B0F0E1F0660F771F881FDA
:10134000991F1AF0BA95C9F714C0B13091F00E94F4
:101350000C0AB1E008950C940C0A672F782F8827A7
:10136000B85F39F0B93FCCF3869577956795B3951B
:10137000D9F73EF490958095709561957F4F8F4F8A
:101380009F4F089597F99F6780E870E060E00895A7
:101390009FEF80EC089500240A941616170618068D
:1013A0000906089500240A94121613061406050669
:1013B0000895092E0394000C11F4882352F0BB0FFA
:1013C00040F4BF2B11F460FF04C06F5F7F4F8F4F5D
:1013D0009F4F089557FD9058440F551F59F05F3F98
:1013E00071F04795880F97FB991F61F09F3F79F047
:1013F00087950895121613061406551FF2CF4695C9
:10140000F1DF08C0161617061806991FF1CF86954A
:101410007105610508940895E894BB27662777272E
:10142000CB0197F908950E94260A0C94D9090E94CD
:10143000CB0938F00E94D20920F0952311F00C94CA
:10144000C2090C94C80911240C940D0A0E94EA09DF
:1014500070F3959FC1F3950F50E0551F629FF00107
:10146000729FBB27F00DB11D639FAA27F00DB11D20
:10147000AA1F649F6627B00DA11D661F829F2227A9
:10148000B00DA11D621F739FB00DA11D621F839F30
:10149000A00D611D221F749F3327A00D611D231F06
:1014A000849F600D211D822F762F6A2F11249F5754
:1014B00050409AF0F1F088234AF0EE0FFF1FBB1F57
:1014C000661F771F881F91505040A9F79E3F510516
:1014D00080F00C94C2090C940D0A5F3FE4F3983E2F
:1014E000D4F3869577956795B795F795E7959F5FC0
:1014F000C1F7FE2B880F911D9695879597F9089552
:101500000F931F93CF93DF938230910510F482E005
:1015100090E0E0913A02F0913B0220E030E0A0E060
:10152000B0E0309719F14081518102811381481751
:101530005907C8F08417950769F4109731F012968F
:101540000C93129713961C9327C000933A021093A2
:101550003B0222C02115310519F04217530718F438
:101560009A01BD01EF01DF01F801DBCF2115310543
:10157000F9F0281B390B2430310580F48A819B81D6
:101580006115710521F0FB019383828304C0909360
:101590003B0280933A02FE01329644C0FE01E20F04
:1015A000F31F8193919322503109398328833AC0E4
:1015B0002091380230913902232B41F4209104020A
:1015C00030910502309339022093380220910202B3
:1015D000309103022115310541F42DB73EB74091FA
:1015E000060250910702241B350BE0913802F0915E
:1015F0003902E217F307A0F42E1B3F0B2817390717
:1016000078F0AC014E5F5F4F2417350748F04E0F5E
:101610005F1F50933902409338028193919302C027
:10162000E0E0F0E0CF01DF91CF911F910F9108959D
:10163000CF93DF93009709F481C0FC0132971382A6
:101640001282A0913A02B0913B02109781F420815E
:101650003181820F931F209138023091390228176F
:10166000390751F5F0933902E093380267C0ED0174
:1016700020E030E0CE17DF0740F44A815B819E0115
:1016800041155105F1F0EA01F5CFD383C2834081C2
:101690005181840F951FC817D90759F48881998102
:1016A000840F951F0296918380838A819B81938307
:1016B00082832115310529F4F0933B02E0933A022D
:1016C0003DC0E901FB83EA8349915991C40FD51FBD
:1016D000EC17FD0761F480819181840F951F0296BC
:1016E000E90199838883828193819B838A83E0E0E7
:1016F000F0E012968D919C911397009719F0FD01DF
:10170000DC01F7CF8D919C9111979D012E5F3F4F8A
:10171000820F931F20913802309139022817390720
:1017200069F4309729F410923B0210923A0202C0F9
:1017300013821282B0933902A0933802DF91CF91C5
:061740000895F894FFCFAC
:10174600320000003C022000362E2D357800A6001F
:061756003A00C8002E005D
:00000001FF
