:100000000C9474000C948F010C94BA010C94E501CB
:100010000C9410020C943B020C9466020C94910216
:100020000C94BC020C9495000C9495000C949500D3
:100030000C9495000C9495000C9495000C949500EC
:100040000C9495000C9495000C9495000C949500DC
:100050000C9495000C9495000C9495000C949500CC
:100060000C9495000C9495000C9495000C949500BC
:100070000C9495000C94F6000C9495000C9495004B
:100080000C9495000C9495000C9495000C9495009C
:100090000C9495000C9495000C9495000C9495008C
:1000A0000C9495000C9495000C9495000C9495007C
:1000B0000C9495000C9495000C9495000C94A20857
:1000C0000C9495000C9495000C9495000C9495005C
:1000D0000C9495000C9495000C9495000C9495004C
:1000E0000C9495000C94260111241FBECFEFD1E291
:1000F000DEBFCDBF00E00CBF12E0A0E0B2E0E2E363
:10010000F9E100E00BBF02C007900D92A432B107E5
:10011000D9F722E0A4E2B2E001C01D92AA34B207EE
:10012000E1F70E9497000C94970C0C94E7020E9450
:10013000680460E081E00E94CF030E94470984E1E7
:1001400092E00E946C04FFCFF894EAE7F0E080812F
:1001500088688083ABE7B0E08C91877F8C93ACE7B5
:10016000B0E08C9181668C938C91817E8C93789495
:100170008081806480830895F894ECE7F0E09081BA
:10018000907E90839081892B8083789408950E943B
:10019000BC0010923C0210923B02EAE7F0E0808142
:1001A0008064808380913B028130E1F780913D0241
:1001B000089581E00E94C70008950E94BC0081E07C
:1001C00080933C0210923B02EAE7F0E08081806479
:1001D000808380913B028130E1F7809139029091D8
:1001E0003A02089581E00E94DD0008951F920F9267
:1001F0000FB60F9211242F933F938F939F9380916B
:100200003C02811105C08091790080933D0212C0AB
:1002100080917800209179008295869586958370EB
:1002200090E034E0239F800D911D112490933A02B9
:100230008093390281E080933B029F918F913F919F
:100240002F910F900FBE0F901F9018950895CF9388
:10025000DF93E9E2F2E049E352E026E231E0219364
:100260003193E417F507D9F7F8948DBB8AEA8093A8
:10027000690080936A0020E030E0E9E6F0E0C62FF4
:10028000062E000CDD0B4081CE01022E02C095959A
:1002900087950A94E2F781709927D901AA0FBB1FAD
:1002A00002C0880F991FAA95E2F7842B80832F5FE5
:1002B0003F4F2430310539F762956F7020E030E010
:1002C000EAE6F0E0062E000C770B4081CB01022E0F
:1002D00002C0959587950A94E2F781709927D90114
:1002E000AA0FBB1F02C0880F991FAA95E2F7842BA3
:1002F00080832F5F3F4F2430310539F77894DF91A9
:10030000CF910895F8948830910538F4880F991F9B
:10031000FC01E75DFD4F71836083789408951F921F
:100320000F920FB60F9211240BB60F922F933F939B
:100330004F935F936F937F938F939F93AF93BF93ED
:10034000EF93FF93E0912902F0912A021995FF9112
:10035000EF91BF91AF919F918F917F916F915F913D
:100360004F913F912F910F900BBE0F900FBE0F90AA
:100370001F9018951F920F920FB60F9211240BB673
:100380000F922F933F934F935F936F937F938F932E
:100390009F93AF93BF93EF93FF93E0912B02F09164
:1003A0002C021995FF91EF91BF91AF919F918F9181
:1003B0007F916F915F914F913F912F910F900BBE65
:1003C0000F900FBE0F901F9018951F920F920FB6AF
:1003D0000F9211240BB60F922F933F934F935F937D
:1003E0006F937F938F939F93AF93BF93EF93FF93FD
:1003F000E0912D02F0912E021995FF91EF91BF919E
:10040000AF919F918F917F916F915F914F913F91AC
:100410002F910F900BBE0F900FBE0F901F9018954D
:100420001F920F920FB60F9211240BB60F922F93BB
:100430003F934F935F936F937F938F939F93AF936C
:10044000BF93EF93FF93E0912F02F0913002199543
:10045000FF91EF91BF91AF919F918F917F916F919C
:100460005F914F913F912F910F900BBE0F900FBE58
:100470000F901F9018951F920F920FB60F92112494
:100480000BB60F922F933F934F935F936F937F938E
:100490008F939F93AF93BF93EF93FF93E0913102BC
:1004A000F09132021995FF91EF91BF91AF919F9119
:1004B0008F917F916F915F914F913F912F910F900D
:1004C0000BBE0F900FBE0F901F9018951F920F92AA
:1004D0000FB60F9211240BB60F922F933F934F93A9
:1004E0005F936F937F938F939F93AF93BF93EF939C
:1004F000FF93E0913302F09134021995FF91EF914F
:10050000BF91AF919F918F917F916F915F914F912B
:100510003F912F910F900BBE0F900FBE0F901F9029
:1005200018951F920F920FB60F9211240BB60F92CF
:100530002F933F934F935F936F937F938F939F93EB
:10054000AF93BF93EF93FF93E0913502F0913602A2
:100550001995FF91EF91BF91AF919F918F917F91ED
:100560006F915F914F913F912F910F900BBE0F9024
:100570000FBE0F901F9018951F920F920FB60F92FB
:1005800011240BB60F922F933F934F935F936F936A
:100590007F938F939F93AF93BF93EF93FF93E091DC
:1005A0003702F09138021995FF91EF91BF91AF9109
:1005B0009F918F917F916F915F914F913F912F917B
:1005C0000F900BBE0F900FBE0F901F9018951F92AB
:1005D0000F920FB60F9211240F900FBE0F901F9025
:1005E000189582B38695C1F42CB1809100012870D2
:1005F00030E0220F331F220F331F887190E0880FE5
:10060000991F880F991F880F991F282B392B81E07C
:10061000232B19F480E0089581E0089584B39EB1FE
:10062000309102019870292F220F220F932F987179
:10063000990F990F990F922B8695892B089583B363
:100640009DB1309101019870292F220F220F932F15
:100650009871990F990F990F922B8695892B089570
:1006600094B3917C94BB7398E2E0F1E09081977E23
:10067000908324B3982F9F71990F922B94BB4EB106
:10068000982F9072292F990F330B35952795359513
:100690002795242B2EB92081082E000C990B807AE7
:1006A0009927959587959595879595958795822B0B
:1006B0008083089593B3917C93BB6B98E1E0F1E064
:1006C0009081977E908323B3982F9F71990F922BDF
:1006D00093BB4DB1982F9072292F990F330B3595FD
:1006E000279535952795242B2DB92081082E000CB0
:1006F000990B807A992795958795959587959595E6
:100700008795822B808308951F93CF93DF930E9458
:100710001F03807F0E945A03A19AE2E0F1E08081EA
:100720008F7D808382E08A95F1F700C0C2E0D1E03E
:1007300088818064888382E08A95F1F700C00E94F6
:10074000F102182F1295107F82E08A95F1F700C010
:1007500088818F7B888385E08A95F1F70000888106
:100760008064888382E08A95F1F700C00E94F102DC
:1007700082E08A95F1F700C088818F7B888385E0CD
:100780008A95F1F7000011239CF2A1980E941F03A3
:100790008F600E945A03DF91CF911F9108950F93AC
:1007A0001F93CF93DF93082F02950F70182F1F70A0
:1007B000611106C0E2E0F1E080818F7D808305C099
:1007C000E2E0F1E080818062808382E08A95F1F747
:1007D00000C0C2E0D1E09881906498830E940E032B
:1007E000807F802B0E94300385E08A95F1F700001E
:1007F00098819F7B988385E08A95F1F70000988126
:10080000906498830E940E03807F812B0E943003A6
:1008100085E08A95F1F7000088818F7B888385E0E9
:100820008A95F1F700000E948403DF91CF911F9118
:100830000F9108951F93CF93DF93182F2FEF86E723
:1008400091E0215080409040E1F700C000000E94FC
:100850001F038F600E945A03E1E0F1E08081806411
:100860008083808180628083999A0E940E038F70BA
:100870000E943003C2E0D1E088818F7B8883A198F9
:1008800088818F7D888300C000C0000088818064DB
:1008900088830E940E0382600E94300325E02A951F
:1008A000F1F7000088818F7B888385E08A95F1F7D6
:1008B00000000E94840360E0812F8C600E94CF03BF
:1008C00060E088E20E94CF03DF91CF911F910895ED
:1008D00083E00E941A040895CF93DF93EC0188818E
:1008E000882339F0219661E00E94CF03899181111C
:1008F000FACFDF91CF9108954F925F926F927F92DE
:100900009F92AF92BF92CF92DF92EF92FF920F939E
:100910001F93CF93DF936B017C018A0199235CF4D1
:10092000F094E094D094C094C11CD11CE11CF11C43
:100930009924939401C0912C0F3F8FEF180711F564
:10094000C114D104E104F10409F46AC0A7019601BD
:10095000C0E0D0E00F2EFAE04F2E512C612C712C0C
:10096000F02D01C0E8018E010F5F1F4FCA01B901D0
:10097000A30192010E94C8092115310541055105C5
:1009800089F746C0C8010E94760B5C01E8012197F7
:10099000C114D104E104F104D1F02196CA0DDB1D8C
:1009A0000F2EFAE04F2E512C612C712CF02DC70127
:1009B000B601A30192010E94C8096A93C22ED32EE8
:1009C000E42EF52EC114D104E104F10481F799203D
:1009D00021F061E08DE20E94CF03101611065CF455
:1009E000E5010A0D1B1D899161E0805D0E94CF0326
:1009F0000C171D07C1F7C5010E940E0C19C081E03C
:100A000090E00E94760B5C01E80101E010E0C5CFA8
:100A100001151105A1F3C8010E94760B5C01BDCF41
:100A200081E090E00E94760B5C0101E010E0CFCF06
:100A3000DF91CF911F910F91FF90EF90DF90CF90BA
:100A4000BF90AF909F907F906F905F904F90089570
:100A50000E94820A072E000C880B990B4FEF5FEF64
:100A60000E947C0481E292E00E946C040895883226
:100A700030F46111806460E080680E94CF030895C3
:100A800086E090E00E94760BFC01118210821382B6
:100A900012821582148208951F93CF93DF93EC0185
:100AA000162F85E090E00E94760BFC0110831282E5
:100AB0001182148213828C819D81892B19F4FB830E
:100AC000EA830AC0A881B9811496FC93EE93139728
:100AD0008881998192838183F983E8838C819D81C8
:100AE00001969D838C83DF91CF911F9108951F9371
:100AF000CF93DF93FC01A081B1811097C9F01C91C5
:100B000011968D919C91129791838083828193811C
:100B1000A817B90711F413821282EF01CD010E94C8
:100B20000E0C8C819D8101979D838C83812F01C048
:100B300080E0DF91CF911F910895DC01ED91FC9150
:100B4000309711F08081089580E008951F93CF932E
:100B5000DF93FC01A281B3811097C9F01C91139619
:100B60008D919C9114979383828380819181A817A2
:100B7000B90711F411821082EF01CD010E940E0C11
:100B80008C819D8101979D838C83812F01C080E0A2
:100B9000DF91CF911F910895CF93DF93EC018C816A
:100BA0009D811816190644F4CE010E9477058C81A8
:100BB0009D8118161906C4F3DF91CF910895FC01A9
:100BC000848195810895683058F421E030E002C0B6
:100BD000220F331F6A95E2F7FC013081232B20831B
:100BE0000895683060F421E030E002C0220F331F26
:100BF0006A95E2F72095FC01308123232083089534
:100C0000683058F421E030E002C0220F331F6A95AB
:100C1000E2F7FC01308123272083089541E050E072
:100C200002C0440F551F6A95E2F721E030E0452BE2
:100C300011F420E030E0082E000C990B2823392312
:100C400081E0232B09F480E00895CF92DF92EF92A8
:100C5000FF920F931F938B019C0135952795179554
:100C600007950F2EFFEDCF2EF9E5DF2EF7E3EF2EE0
:100C7000FFE5FF2EF02DC01AD10AE20AF30A20E0A8
:100C800030E040E05FE30E94090BA70196010E945B
:100C9000090BA70196010E94090B9B01AC0160E0C2
:100CA00070E080EC9FE30E94150AA70196010E9464
:100CB000090B1F910F91FF90EF90DF90CF90089557
:100CC000CF93C8B188B964E670E080E090E00E94FC
:100CD0007009C8B9CF91089584B5806A84BD85B57F
:100CE000836085BD8FEF84B983BB089594B59C7FE5
:100CF00094BD95B5977F95BD94B5282F2370922B01
:100D000094BD95B58470880F892B85BD089584B5F1
:100D100025B5287030E0359527958370822B08958E
:100D2000CF93C82F88BD0E9487068570853009F053
:100D3000C7BDCF910895909301028093000208955A
:100D4000E1E2F1E080818A60808388EE93E0909315
:100D50002901809328011092250110922401E3E7D4
:100D6000F0E080818260808380E992EEA0E0B0E0D4
:100D700080933E0290933F02A0934002B0934102C1
:100D800084E893E0A0E0B0E08093420290934302B5
:100D9000A0934402B09345027894089510922702DC
:100DA00010922602089581B18F6081B98091280246
:100DB0008F5F837080932802E0912802F0E0E85F63
:100DC000FD4F808182B98091260290912702019681
:100DD0009093270280932602809126029091270209
:100DE00068EC70E00E94920990932702809326029B
:100DF000089581B18F6081B98091280281508370FC
:100E000080932802E0912802F0E0E85FFD4F8081A6
:100E100082B9809126029091270201979093270230
:100E200080932602809126029091270268EC70E060
:100E30000E949209909327028093260208952F9290
:100E40003F924F925F926F927F928F929F92AF925A
:100E5000BF92CF92DF92EF92FF920F931F93CF93A7
:100E6000DF936B017C01AB01BC01FF203CF4442704
:100E70005527BA014C195D096E097F0981E090E0A0
:100E800090932502809324024B3151056105710531
:100E900064F4DB01CA0177231CF40196A11DB11D86
:100EA000B595A7959795879502C08DE090E0FF20B6
:100EB0003CF01C141D041E041F040CF44AC083C023
:100EC000F094E094D094C094C11CD11CE11CF11C9E
:100ED0001C141D041E041F040CF075C0412C512C61
:100EE0003201C0E0D0E00F2EF8EE2F2EF3E03F2EBF
:100EF000F02D092E000CAA0BBB0B46015701881AD6
:100F0000990AAA0ABB0A0FEF1FEF0E94F906609127
:100F1000000270910102C1010E949209072E000C8B
:100F2000880B990B0E947009481459046A047B04C9
:100F300024F0109325020093240221962E010D2EF9
:100F4000000C660877084C145D046E047F04ECF214
:100F50003AC0412C512C3201C0E0D0E00F2EF8EE07
:100F60002F2EF3E03F2EF02D092E000CAA0BBB0B09
:100F700046015701881A990AAA0ABB0A0FEF1FEF08
:100F80000E94D3066091000270910102C1010E948B
:100F90009209072E000C880B990B0E9470094814C7
:100FA00059046A047B0424F0109325020093240260
:100FB00021962E010D2E000C660877084C145D0456
:100FC0006E047F04ECF2DF91CF911F910F91FF909F
:100FD000EF90DF90CF90BF90AF909F908F907F90D9
:100FE0006F905F904F903F902F900895CF92DF9237
:100FF000EF92FF920F931F93CF93DF936B017C01CE
:101000001092250210922402992334F01616170626
:10101000180619066CF14AC0F094E094D094C0947C
:10102000C11CD11CE11CF11C1C141D041E041F0456
:10103000ECF5C0E0D0E008EE13E00E94F906609104
:10104000000270910102C8010E949209072E000C53
:10105000880B990B0E9470092196CE010D2E000C71
:10106000AA0BBB0B8C159D05AE05BF0534F31EC046
:10107000C0E0D0E008EE13E00E94D30660910002C9
:1010800070910102C8010E949209072E000C880B82
:10109000990B0E9470092196CE010D2E000CAA0B0F
:1010A000BB0B8C159D05AE05BF0534F3DF91CF91C9
:1010B0001F910F91FF90EF90DF90CF9008959B01CB
:1010C000AC01A8ECB0E00E94E70928E631E040E07E
:1010D00050E00E94C809CA01B9010E94F6070895AC
:1010E0002091260230912702821B930B85369105B1
:1010F0001CF0885C910906C08C392FEF920714F41C
:1011000088539F4FBC01990F880B990B0E94F607DB
:1011100008952091260230912702821B930B853679
:1011200091051CF0885C910906C08C392FEF92075D
:1011300014F488539F4FBC01990F880B990B0E94A0
:101140001F0708951F920F920FB60F9211240BB62E
:101150000F922F933F934F935F936F937F938F9350
:101160009F93AF93BF93EF93FF938091240290914D
:1011700025028F3F2FEF9207F1F1019709F074C01C
:101180008091000290910102863A9105ECF4409121
:101190004202509143026091440270914502809155
:1011A0003E0290913F02A0914002B0914102840F13
:1011B000951FA61FB71F80933E0290933F02A093F6
:1011C0004002B093410204C0109225021092240202
:1011D00060913E0270913F028091400290914102E5
:1011E00028EE33E040E050E00E94A609309301026F
:1011F0002093000239C08091000290910102CB97A8
:10120000ECF040914202509143026091440270918F
:10121000450280913E0290913F02A0914002B09120
:101220004102841B950BA60BB70B80933E02909353
:101230003F02A0934002B093410204C010922502E5
:101240001092240260913E0270913F028091400210
:101250009091410228EE33E040E050E00E94A60960
:101260003093010220930002FF91EF91BF91AF9163
:101270009F918F917F916F915F914F913F912F91AE
:101280000F900BBE0F900FBE0F901F901895E1E6C8
:10129000F0E080E8808381E0808388EE93E09093A3
:1012A000990080939800E1E9F0E08081826080837A
:1012B000089590939900809398000895E1E8F0E0F4
:1012C0008081886080831092850010928400B19A9A
:1012D0000895809184009091850096958795089552
:1012E0000F931F93E1E9F0E02081286020831092A2
:1012F000950010929400C19A00E010E0980107C098
:10130000C19BFECFC19A0F5F1F4F2F4F3F4F061754
:101310001707280739071CF4C19BF2CFF3CF1F91A1
:101320000F91089597FB072E16F4009407D077FDD0
:1013300009D00E94F20907FC05D03EF490958195F2
:101340009F4F0895709561957F4F0895A1E21A2EE1
:10135000AA1BBB1BFD010DC0AA1FBB1FEE1FFF1F59
:10136000A217B307E407F50720F0A21BB30BE40BA9
:10137000F50B661F771F881F991F1A9469F76095F0
:101380007095809590959B01AC01BD01CF010895AA
:10139000052E97FB1EF400940E94DF0957FD07D02D
:1013A0000E94A60907FC03D04EF40C94DF09509567
:1013B0004095309521953F4F4F4F5F4F0895909541
:1013C0008095709561957F4F8F4F9F4F08950E9434
:1013D000060AA59F900DB49F900DA49F800D911DAE
:1013E00011240895AA1BBB1B51E107C0AA1FBB1FF4
:1013F000A617B70710F0A61BB70B881F991F5A95A1
:10140000A9F780959095BC01CD010895A29FB001E8
:10141000B39FC001A39F700D811D1124911DB29F28
:10142000700D811D1124911D08955058BB27AA27C6
:101430000E942D0A0C94CF0A0E94C10A38F00E9423
:10144000C80A20F039F49F3F19F426F40C94BE0A20
:101450000EF4E095E7FB0C94B80AE92F0E94E00A2D
:1014600058F3BA17620773078407950720F079F4D9
:10147000A6F50C94020B0EF4E0950B2EBA2FA02DBE
:101480000B01B90190010C01CA01A0011124FF2731
:10149000591B99F0593F50F4503E68F11A16F0402C
:1014A000A22F232F342F4427585FF3CF469537952B
:1014B0002795A795F0405395C9F77EF41F16BA0BF0
:1014C000620B730B840BBAF09150A1F0FF0FBB1F9E
:1014D000661F771F881FC2F70EC0BA0F621F731FE7
:1014E000841F48F4879577956795B795F7959E3F44
:1014F00008F0B0CF9395880F08F09927EE0F9795D5
:10150000879508950E94890A6894B1110C94030B81
:1015100008950E94E80A88F09F5798F0B92F9927FC
:10152000B751B0F0E1F0660F771F881F991F1AF0CE
:10153000BA95C9F714C0B13091F00E94020BB1E026
:1015400008950C94020B672F782F8827B85F39F025
:10155000B93FCCF3869577956795B395D9F73EF467
:1015600090958095709561957F4F8F4F9F4F08950F
:1015700097F99F6780E870E060E008959FEF80EC46
:10158000089500240A9416161706180609060895E9
:1015900000240A9412161306140605060895092E4F
:1015A0000394000C11F4882352F0BB0F40F4BF2BBE
:1015B00011F460FF04C06F5F7F4F8F4F9F4F0895FE
:1015C00057FD9058440F551F59F05F3F71F04795F4
:1015D000880F97FB991F61F09F3F79F087950895D9
:1015E000121613061406551FF2CF4695F1DF08C0F8
:1015F000161617061806991FF1CF86957105610515
:1016000008940895E894BB2766277727CB0197F9BC
:1016100008950E941C0B0C94CF0A0E94C10A38F056
:101620000E94C80A20F0952311F00C94B80A0C947B
:10163000BE0A11240C94030B0E94E00A70F3959FDC
:10164000C1F3950F50E0551F629FF001729FBB27B9
:10165000F00DB11D639FAA27F00DB11DAA1F649F55
:101660006627B00DA11D661F829F2227B00DA11D08
:10167000621F739FB00DA11D621F839FA00D611D8E
:10168000221F749F3327A00D611D231F849F600DAF
:10169000211D822F762F6A2F11249F5750409AF0D8
:1016A000F1F088234AF0EE0FFF1FBB1F661F771F64
:1016B000881F91505040A9F79E3F510580F00C942F
:1016C000B80A0C94030B5F3FE4F3983ED4F386957D
:1016D00077956795B795F795E7959F5FC1F7FE2BCF
:1016E000880F911D9695879597F908950F931F93ED
:1016F000CF93DF938230910510F482E090E0E09187
:101700004802F091490220E030E0A0E0B0E03097DC
:1017100019F1408151810281138148175907C8F09E
:101720008417950769F4109731F012960C9312976D
:1017300013961C9327C0009348021093490222C0BD
:101740002115310519F04217530718F49A01BD010C
:10175000EF01DF01F801DBCF21153105F9F0281B7E
:10176000390B2430310580F48A819B816115710524
:1017700021F0FB019383828304C0909349028093FC
:101780004802FE01329644C0FE01E20FF31F81932E
:10179000919322503109398328833AC0209146021F
:1017A00030914702232B41F420910402309105022D
:1017B00030934702209346022091020230910302A7
:1017C0002115310541F42DB73EB7409106025091E5
:1017D0000702241B350BE0914602F0914702E21705
:1017E000F307A0F42E1B3F0B2817390778F0AC0144
:1017F0004E5F5F4F2417350748F04E0F5F1F509321
:101800004702409346028193919302C0E0E0F0E0EA
:10181000CF01DF91CF911F910F910895CF93DF9367
:10182000009709F481C0FC01329713821282A091C3
:101830004802B0914902109781F420813181820FD2
:10184000931F20914602309147022817390751F51E
:10185000F0934702E093460267C0ED0120E030E0DC
:10186000CE17DF0740F44A815B819E014115510587
:10187000F1F0EA01F5CFD383C28340815181840F17
:10188000951FC817D90759F488819981840F951F2E
:101890000296918380838A819B8193838283211521
:1018A000310529F4F0934902E09348023DC0E90173
:1018B000FB83EA8349915991C40FD51FEC17FD07AB
:1018C00061F480819181840F951F0296E9019983CB
:1018D0008883828193819B838A83E0E0F0E0129683
:1018E0008D919C911397009719F0FD01DC01F7CFC2
:1018F0008D919C9111979D012E5F3F4F820F931FF9
:1019000020914602309147022817390769F4309731
:1019100029F4109249021092480202C013821282E6
:10192000B0934702A0934602DF91CF910895F894B7
:02193000FFCFE7
:10193200320000004A022000362E2D357800A60023
:101942003A00C80048656C6C6F20576F726C642156
:04195200002E000063
:00000001FF
